{
  "_format": "hh-sol-artifact-1",
  "contractName": "Voting",
  "sourceName": "contracts/Voting.sol",
  "abi": [
    {
      "inputs": [],
      "stateMutability": "nonpayable",
      "type": "constructor"
    },
    {
      "inputs": [
        {
          "internalType": "string",
          "name": "name",
          "type": "string"
        }
      ],
      "name": "addCandidate",
      "outputs": [],
      "stateMutability": "nonpayable",
      "type": "function"
    },
    {
      "inputs": [],
      "name": "admin",
      "outputs": [
        {
          "internalType": "address",
          "name": "",
          "type": "address"
        }
      ],
      "stateMutability": "view",
      "type": "function"
    },
    {
      "inputs": [
        {
          "internalType": "uint256",
          "name": "",
          "type": "uint256"
        }
      ],
      "name": "candidates",
      "outputs": [
        {
          "internalType": "string",
          "name": "name",
          "type": "string"
        },
        {
          "internalType": "uint256",
          "name": "voteCount",
          "type": "uint256"
        }
      ],
      "stateMutability": "view",
      "type": "function"
    },
    {
      "inputs": [],
      "name": "endVoting",
      "outputs": [],
      "stateMutability": "nonpayable",
      "type": "function"
    },
    {
      "inputs": [],
      "name": "getAllCandidates",
      "outputs": [
        {
          "components": [
            {
              "internalType": "string",
              "name": "name",
              "type": "string"
            },
            {
              "internalType": "uint256",
              "name": "voteCount",
              "type": "uint256"
            }
          ],
          "internalType": "struct Voting.Candidate[]",
          "name": "",
          "type": "tuple[]"
        }
      ],
      "stateMutability": "view",
      "type": "function"
    },
    {
      "inputs": [
        {
          "internalType": "uint256",
          "name": "index",
          "type": "uint256"
        }
      ],
      "name": "getCandidate",
      "outputs": [
        {
          "internalType": "string",
          "name": "name",
          "type": "string"
        },
        {
          "internalType": "uint256",
          "name": "voteCount",
          "type": "uint256"
        }
      ],
      "stateMutability": "view",
      "type": "function"
    },
    {
      "inputs": [],
      "name": "getCandidateCount",
      "outputs": [
        {
          "internalType": "uint256",
          "name": "",
          "type": "uint256"
        }
      ],
      "stateMutability": "view",
      "type": "function"
    },
    {
      "inputs": [],
      "name": "getResults",
      "outputs": [
        {
          "components": [
            {
              "internalType": "string",
              "name": "name",
              "type": "string"
            },
            {
              "internalType": "uint256",
              "name": "voteCount",
              "type": "uint256"
            }
          ],
          "internalType": "struct Voting.Candidate[]",
          "name": "",
          "type": "tuple[]"
        }
      ],
      "stateMutability": "view",
      "type": "function"
    },
    {
      "inputs": [
        {
          "internalType": "string",
          "name": "voterID",
          "type": "string"
        }
      ],
      "name": "hasVoterVoted",
      "outputs": [
        {
          "internalType": "bool",
          "name": "",
          "type": "bool"
        }
      ],
      "stateMutability": "view",
      "type": "function"
    },
    {
      "inputs": [
        {
          "internalType": "string",
          "name": "voterID",
          "type": "string"
        }
      ],
      "name": "isVoterRegistered",
      "outputs": [
        {
          "internalType": "bool",
          "name": "",
          "type": "bool"
        }
      ],
      "stateMutability": "view",
      "type": "function"
    },
    {
      "inputs": [],
      "name": "isVotingOpen",
      "outputs": [
        {
          "internalType": "bool",
          "name": "",
          "type": "bool"
        }
      ],
      "stateMutability": "view",
      "type": "function"
    },
    {
      "inputs": [
        {
          "internalType": "string",
          "name": "voterID",
          "type": "string"
        }
      ],
      "name": "registerVoter",
      "outputs": [],
      "stateMutability": "nonpayable",
      "type": "function"
    },
    {
      "inputs": [],
      "name": "startVoting",
      "outputs": [],
      "stateMutability": "nonpayable",
      "type": "function"
    },
    {
      "inputs": [
        {
          "internalType": "string",
          "name": "voterID",
          "type": "string"
        },
        {
          "internalType": "uint256",
          "name": "candidateIndex",
          "type": "uint256"
        }
      ],
      "name": "vote",
      "outputs": [],
      "stateMutability": "nonpayable",
      "type": "function"
    }
  ],
  "bytecode": "0x608060405234801561001057600080fd5b50336000806101000a81548173ffffffffffffffffffffffffffffffffffffffff021916908373ffffffffffffffffffffffffffffffffffffffff160217905550611d43806100606000396000f3fe608060405234801561001057600080fd5b50600436106100ea5760003560e01c80636428a4861161008c578063a638580311610066578063a63858031461024d578063c3403ddf14610269578063f851a44014610273578063fa7f1bae14610291576100ea565b80636428a486146101d157806397c86e07146101ed5780639e6adbc41461021d576100ea565b80633477ee2e116100c85780633477ee2e1461013557806335b8e82014610166578063462e91ec146101975780634717f97c146101b3576100ea565b80631ec6b60a146100ef5780632e6997fe146100f957806330a5634714610117575b600080fd5b6100f76102af565b005b6101016103f2565b60405161010e9190611075565b60405180910390f35b61011f6104ed565b60405161012c91906110a6565b60405180910390f35b61014f600480360381019061014a9190611101565b6104fa565b60405161015d929190611178565b60405180910390f35b610180600480360381019061017b9190611101565b6105b6565b60405161018e929190611178565b60405180910390f35b6101b160048036038101906101ac91906112dd565b6106fe565b005b6101bb610842565b6040516101c89190611075565b60405180910390f35b6101eb60048036038101906101e691906112dd565b61098d565b005b610207600480360381019061020291906112dd565b610b1a565b6040516102149190611341565b60405180910390f35b610237600480360381019061023291906112dd565b610b52565b6040516102449190611341565b60405180910390f35b6102676004803603810190610262919061135c565b610b8a565b005b610271610d9d565b005b61027b610e96565b60405161028891906113f9565b60405180910390f35b610299610eba565b6040516102a69190611341565b60405180910390f35b60008054906101000a900473ffffffffffffffffffffffffffffffffffffffff1673ffffffffffffffffffffffffffffffffffffffff163373ffffffffffffffffffffffffffffffffffffffff161461033d576040517f08c379a000000000000000000000000000000000000000000000000000000000815260040161033490611460565b60405180910390fd5b600060149054906101000a900460ff161561038d576040517f08c379a0000000000000000000000000000000000000000000000000000000008152600401610384906114cc565b60405180910390fd5b6000600180549050116103d5576040517f08c379a00000000000000000000000000000000000000000000000000000000081526004016103cc90611538565b60405180910390fd5b6001600060146101000a81548160ff021916908315150217905550565b60606001805480602002602001604051908101604052809291908181526020016000905b828210156104e4578382906000526020600020906002020160405180604001604052908160008201805461044990611587565b80601f016020809104026020016040519081016040528092919081815260200182805461047590611587565b80156104c25780601f10610497576101008083540402835291602001916104c2565b820191906000526020600020905b8154815290600101906020018083116104a557829003601f168201915b5050505050815260200160018201548152505081526020019060010190610416565b50505050905090565b6000600180549050905090565b6001818154811061050a57600080fd5b906000526020600020906002020160009150905080600001805461052d90611587565b80601f016020809104026020016040519081016040528092919081815260200182805461055990611587565b80156105a65780601f1061057b576101008083540402835291602001916105a6565b820191906000526020600020905b81548152906001019060200180831161058957829003601f168201915b5050505050908060010154905082565b606060006001805490508310610601576040517f08c379a00000000000000000000000000000000000000000000000000000000081526004016105f890611604565b60405180910390fd5b60006001848154811061061757610616611624565b5b906000526020600020906002020160405180604001604052908160008201805461064090611587565b80601f016020809104026020016040519081016040528092919081815260200182805461066c90611587565b80156106b95780601f1061068e576101008083540402835291602001916106b9565b820191906000526020600020905b81548152906001019060200180831161069c57829003601f168201915b5050505050815260200160018201548152505090508060000151600060149054906101000a900460ff166106f15781602001516106f4565b60005b9250925050915091565b60008054906101000a900473ffffffffffffffffffffffffffffffffffffffff1673ffffffffffffffffffffffffffffffffffffffff163373ffffffffffffffffffffffffffffffffffffffff161461078c576040517f08c379a000000000000000000000000000000000000000000000000000000000815260040161078390611460565b60405180910390fd5b600060149054906101000a900460ff16156107dc576040517f08c379a00000000000000000000000000000000000000000000000000000000081526004016107d3906116c5565b60405180910390fd5b600160405180604001604052808381526020016000815250908060018154018082558091505060019003906000526020600020906002020160009091909190915060008201518160000190816108329190611891565b5060208201518160010155505050565b6060600060149054906101000a900460ff1615610894576040517f08c379a000000000000000000000000000000000000000000000000000000000815260040161088b906119af565b60405180910390fd5b6001805480602002602001604051908101604052809291908181526020016000905b8282101561098457838290600052602060002090600202016040518060400160405290816000820180546108e990611587565b80601f016020809104026020016040519081016040528092919081815260200182805461091590611587565b80156109625780601f1061093757610100808354040283529160200191610962565b820191906000526020600020905b81548152906001019060200180831161094557829003601f168201915b50505050508152602001600182015481525050815260200190600101906108b6565b50505050905090565b60008054906101000a900473ffffffffffffffffffffffffffffffffffffffff1673ffffffffffffffffffffffffffffffffffffffff163373ffffffffffffffffffffffffffffffffffffffff1614610a1b576040517f08c379a0000000000000000000000000000000000000000000000000000000008152600401610a1290611460565b60405180910390fd5b600281604051610a2b9190611a0b565b908152602001604051809103902060000160009054906101000a900460ff1615610a8a576040517f08c379a0000000000000000000000000000000000000000000000000000000008152600401610a8190611a6e565b60405180910390fd5b60405180606001604052806001151581526020016000151581526020016000815250600282604051610abc9190611a0b565b908152602001604051809103902060008201518160000160006101000a81548160ff02191690831515021790555060208201518160000160016101000a81548160ff0219169083151502179055506040820151816001015590505050565b6000600282604051610b2c9190611a0b565b908152602001604051809103902060000160019054906101000a900460ff169050919050565b6000600282604051610b649190611a0b565b908152602001604051809103902060000160009054906101000a900460ff169050919050565b600060149054906101000a900460ff16610bd9576040517f08c379a0000000000000000000000000000000000000000000000000000000008152600401610bd090611ada565b60405180910390fd5b600282604051610be99190611a0b565b908152602001604051809103902060000160009054906101000a900460ff16610c47576040517f08c379a0000000000000000000000000000000000000000000000000000000008152600401610c3e90611b46565b60405180910390fd5b600282604051610c579190611a0b565b908152602001604051809103902060000160019054906101000a900460ff1615610cb6576040517f08c379a0000000000000000000000000000000000000000000000000000000008152600401610cad90611bb2565b60405180910390fd5b6001805490508110610cfd576040517f08c379a0000000000000000000000000000000000000000000000000000000008152600401610cf490611c1e565b60405180910390fd5b6001600283604051610d0f9190611a0b565b908152602001604051809103902060000160016101000a81548160ff02191690831515021790555080600283604051610d489190611a0b565b9081526020016040518091039020600101819055506001808281548110610d7257610d71611624565b5b90600052602060002090600202016001016000828254610d929190611c6d565b925050819055505050565b60008054906101000a900473ffffffffffffffffffffffffffffffffffffffff1673ffffffffffffffffffffffffffffffffffffffff163373ffffffffffffffffffffffffffffffffffffffff1614610e2b576040517f08c379a0000000000000000000000000000000000000000000000000000000008152600401610e2290611460565b60405180910390fd5b600060149054906101000a900460ff16610e7a576040517f08c379a0000000000000000000000000000000000000000000000000000000008152600401610e7190611ced565b60405180910390fd5b60008060146101000a81548160ff021916908315150217905550565b60008054906101000a900473ffffffffffffffffffffffffffffffffffffffff1681565b600060149054906101000a900460ff1681565b600081519050919050565b600082825260208201905092915050565b6000819050602082019050919050565b600081519050919050565b600082825260208201905092915050565b60005b83811015610f33578082015181840152602081019050610f18565b60008484015250505050565b6000601f19601f8301169050919050565b6000610f5b82610ef9565b610f658185610f04565b9350610f75818560208601610f15565b610f7e81610f3f565b840191505092915050565b6000819050919050565b610f9c81610f89565b82525050565b60006040830160008301518482036000860152610fbf8282610f50565b9150506020830151610fd46020860182610f93565b508091505092915050565b6000610feb8383610fa2565b905092915050565b6000602082019050919050565b600061100b82610ecd565b6110158185610ed8565b93508360208202850161102785610ee9565b8060005b8581101561106357848403895281516110448582610fdf565b945061104f83610ff3565b925060208a0199505060018101905061102b565b50829750879550505050505092915050565b6000602082019050818103600083015261108f8184611000565b905092915050565b6110a081610f89565b82525050565b60006020820190506110bb6000830184611097565b92915050565b6000604051905090565b600080fd5b600080fd5b6110de81610f89565b81146110e957600080fd5b50565b6000813590506110fb816110d5565b92915050565b600060208284031215611117576111166110cb565b5b6000611125848285016110ec565b91505092915050565b600082825260208201905092915050565b600061114a82610ef9565b611154818561112e565b9350611164818560208601610f15565b61116d81610f3f565b840191505092915050565b60006040820190508181036000830152611192818561113f565b90506111a16020830184611097565b9392505050565b600080fd5b600080fd5b7f4e487b7100000000000000000000000000000000000000000000000000000000600052604160045260246000fd5b6111ea82610f3f565b810181811067ffffffffffffffff82111715611209576112086111b2565b5b80604052505050565b600061121c6110c1565b905061122882826111e1565b919050565b600067ffffffffffffffff821115611248576112476111b2565b5b61125182610f3f565b9050602081019050919050565b82818337600083830152505050565b600061128061127b8461122d565b611212565b90508281526020810184848401111561129c5761129b6111ad565b5b6112a784828561125e565b509392505050565b600082601f8301126112c4576112c36111a8565b5b81356112d484826020860161126d565b91505092915050565b6000602082840312156112f3576112f26110cb565b5b600082013567ffffffffffffffff811115611311576113106110d0565b5b61131d848285016112af565b91505092915050565b60008115159050919050565b61133b81611326565b82525050565b60006020820190506113566000830184611332565b92915050565b60008060408385031215611373576113726110cb565b5b600083013567ffffffffffffffff811115611391576113906110d0565b5b61139d858286016112af565b92505060206113ae858286016110ec565b9150509250929050565b600073ffffffffffffffffffffffffffffffffffffffff82169050919050565b60006113e3826113b8565b9050919050565b6113f3816113d8565b82525050565b600060208201905061140e60008301846113ea565b92915050565b7f4e6f7420617574686f72697a6564000000000000000000000000000000000000600082015250565b600061144a600e8361112e565b915061145582611414565b602082019050919050565b600060208201905081810360008301526114798161143d565b9050919050565b7f566f74696e6720616c7265616479207374617274656400000000000000000000600082015250565b60006114b660168361112e565b91506114c182611480565b602082019050919050565b600060208201905081810360008301526114e5816114a9565b9050919050565b7f4164642063616e64696461746573206669727374000000000000000000000000600082015250565b600061152260148361112e565b915061152d826114ec565b602082019050919050565b6000602082019050818103600083015261155181611515565b9050919050565b7f4e487b7100000000000000000000000000000000000000000000000000000000600052602260045260246000fd5b6000600282049050600182168061159f57607f821691505b6020821081036115b2576115b1611558565b5b50919050565b7f43616e64696461746520646f6573206e6f742065786973740000000000000000600082015250565b60006115ee60188361112e565b91506115f9826115b8565b602082019050919050565b6000602082019050818103600083015261161d816115e1565b9050919050565b7f4e487b7100000000000000000000000000000000000000000000000000000000600052603260045260246000fd5b7f43616e6e6f74206164642063616e6469646174657320647572696e6720766f7460008201527f696e670000000000000000000000000000000000000000000000000000000000602082015250565b60006116af60238361112e565b91506116ba82611653565b604082019050919050565b600060208201905081810360008301526116de816116a2565b9050919050565b60008190508160005260206000209050919050565b60006020601f8301049050919050565b600082821b905092915050565b6000600883026117477fffffffffffffffffffffffffffffffffffffffffffffffffffffffffffffffff8261170a565b611751868361170a565b95508019841693508086168417925050509392505050565b6000819050919050565b600061178e61178961178484610f89565b611769565b610f89565b9050919050565b6000819050919050565b6117a883611773565b6117bc6117b482611795565b848454611717565b825550505050565b600090565b6117d16117c4565b6117dc81848461179f565b505050565b5b81811015611800576117f56000826117c9565b6001810190506117e2565b5050565b601f82111561184557611816816116e5565b61181f846116fa565b8101602085101561182e578190505b61184261183a856116fa565b8301826117e1565b50505b505050565b600082821c905092915050565b60006118686000198460080261184a565b1980831691505092915050565b60006118818383611857565b9150826002028217905092915050565b61189a82610ef9565b67ffffffffffffffff8111156118b3576118b26111b2565b5b6118bd8254611587565b6118c8828285611804565b600060209050601f8311600181146118fb57600084156118e9578287015190505b6118f38582611875565b86555061195b565b601f198416611909866116e5565b60005b828110156119315784890151825560018201915060208501945060208101905061190c565b8683101561194e578489015161194a601f891682611857565b8355505b6001600288020188555050505b505050505050565b7f566f74696e67206973207374696c6c20696e2070726f67726573730000000000600082015250565b6000611999601b8361112e565b91506119a482611963565b602082019050919050565b600060208201905081810360008301526119c88161198c565b9050919050565b600081905092915050565b60006119e582610ef9565b6119ef81856119cf565b93506119ff818560208601610f15565b80840191505092915050565b6000611a1782846119da565b915081905092915050565b7f566f74657220616c726561647920726567697374657265640000000000000000600082015250565b6000611a5860188361112e565b9150611a6382611a22565b602082019050919050565b60006020820190508181036000830152611a8781611a4b565b9050919050565b7f566f74696e6720697320636c6f73656400000000000000000000000000000000600082015250565b6000611ac460108361112e565b9150611acf82611a8e565b602082019050919050565b60006020820190508181036000830152611af381611ab7565b9050919050565b7f566f746572206e6f742072656769737465726564000000000000000000000000600082015250565b6000611b3060148361112e565b9150611b3b82611afa565b602082019050919050565b60006020820190508181036000830152611b5f81611b23565b9050919050565b7f566f7465722068617320616c726561647920766f746564000000000000000000600082015250565b6000611b9c60178361112e565b9150611ba782611b66565b602082019050919050565b60006020820190508181036000830152611bcb81611b8f565b9050919050565b7f496e76616c69642063616e646964617465000000000000000000000000000000600082015250565b6000611c0860118361112e565b9150611c1382611bd2565b602082019050919050565b60006020820190508181036000830152611c3781611bfb565b9050919050565b7f4e487b7100000000000000000000000000000000000000000000000000000000600052601160045260246000fd5b6000611c7882610f89565b9150611c8383610f89565b9250828201905080821115611c9b57611c9a611c3e565b5b92915050565b7f566f74696e6720616c726561647920656e646564000000000000000000000000600082015250565b6000611cd760148361112e565b9150611ce282611ca1565b602082019050919050565b60006020820190508181036000830152611d0681611cca565b905091905056fea26469706673582212202bf5a7bcc632be4c58e64ab97ad0a3f84f2f8a6edf6d397dc4d3a82d9e32fb7e64736f6c63430008130033",
  "linkReferences": {},
  "deployedLinkReferences": {}
}